:100B6600C100C1028208000082040000C1018400A5
:080B7600000000008206039953
:100B4C007806E2FC08E2FDED1D70011C144C70F7F8
:090B5C00EF1F70011E144E70E73A
:010B6500226D
:0D0B7F00A20392B2A20392CCA20392B32271
:100A7100AB07AA06A2CD9200300014A20092027820
:100A8100000808E2FF08E208CFF208EFF2802D78B3
:100A9100000808E2FF08E27808CFF208EFF27805D3
:100AA100E22BFF18E23AFEC37809E29F18E29E406A
:0E0AB10009300206A2009202D322C322C32201
:03000B00020ABF27
:100ABF00C0E0C0F0C083C082C0D075D000C000C0FD
:100ACF0004C005C006C0077800E2FC08E2FD08E29A
:100ADF00FE08E22401FFE43EFEE43DFDE43CFC7829
:100AEF0000120811D007D006D005D004D000D0D006
:090AFF00D082D083D0F0D0E032A7
:100A130075B204E4F5B1F5CAF5C97589037806E240
:100A2300FE08E2FBE4C39BFFE49EFE74019400FD19
:100A3300E49400FCE4FB7A01F9F8120B08AF038F8E
:100A43008A7806E2FE08E2FBE4C39BFFE49EFE74A1
:100A5300019400FDE49400FCE4FB7A01F9F8120B25
:0E0A6300088F8CD28CD2A9A2019203020B7FC5
:0B08EB007FF47E01120A71400221869A
:1008F6007800E2FC08E2FD08E2FE08E2FF780A1250
:10090600081120CD3E780AE2FC08E2FD08E2FE0866
:10091600E224D0FFEE3407FEE43DFDE43CFC780023
:10092600E2FB08E2F908E2FA08E2CBF8D312080083
:10093600500B7F647E00120B4CB2CC80C5A2019294
:10094600CC80BF780AE2FC08E2FD08E2FE08E22459
:10095600D0FFEE3407FEE43DFDE43CFC7800E2FB0C
:1009660008E2F908E2FA08E2CBF8D31208005002CE
:10097600B201A2019203120B7F7F647E00120B4C20
:01098600224E
:080B8C00120A131208EB80FBB2
:030000000209876B
:0C098700787FE4F6D8FD7581200209CECF
:100B0800C2D5E830E70FB2D5E4C39BFBE49AFAE418
:100B180099F9E498F8EC30E717B2D5120B3E1208B1
:100B280059E4C39BFBE49AFAE499F9E498F8800342
:100B380012085930D50DE4C39FFFE49EFEE49DFDE5
:040B4800E49CFC220B
:10080000EB9FF5F0EA9E42F0E99D42F0E89C45F04E
:0108100022C5
:0C081100ECF208EDF208EEF208EFF22223
:10099300020B8CE493A3F8E493A34003F68001F2E3
:1009A30008DFF48029E493A3F85407240CC8C33365
:1009B300C4540F4420C8834004F456800146F6DF34
:1009C300E4800B0102040810204080900B66E47E53
:1009D300019360BCA3FF543F30E509541FFEE49329
:1009E300A360010ECF54C025E060A840B8E493A3F0
:1009F300FAE493A3F8E493A3C8C582C8CAC583CA1B
:100A0300F0A3C8C582C8CAC583CADFE9DEE780BED2
:010B7E000076
:10081D0075F008758200EF2FFFEE33FECD33CDCC92
:10082D0033CCC58233C5829BED9AEC99E582984015
:10083D000CF582EE9BFEED9AFDEC99FC0FD5F0D6F2
:10084D00E4CEFBE4CDFAE4CCF9A88222B800C1B91C
:10085D000059BA002DEC8BF084CFCECDFCE5F0CB5A
:10086D00F97818EF2FFFEE33FEED33FDEC33FCEB93
:10087D0033FB10D703994004EB99FB0FD8E5E4F94E
:10088D00FA227818EF2FFFEE33FEED33FDEC33FC3B
:10089D00C933C910D7059BE99A4007EC9BFCE99A2F
:1008AD00F90FD8E0E4C9FAE4CCFB2275F010EF2F74
:1008BD00FFEE33FEED33FDCC33CCC833C810D70774
:1008CD009BEC9AE899400AED9BFDEC9AFCE899F8AF
:0E08DD000FD5F0DAE4CDFBE4CCFAE4C8F92242
:00000001FF
