:0400EA00C100C1018F
:0800E1007F247ED9DEFEDFFC66
:0100E90022F4
:0D00BC00C2B31200E11200E1C2B2C2CC22B8
:0D00C900D2B2D2CC1200E11200E1D2B3227B
:0B00D60075B204E4F5B1F5CAF5C922CB
:10008F001200D61200BCA200920120CD0B1200E18B
:10009F0020CD02B20030CDFDA201300001B350E6F9
:0D00AF003000051200C980DE1200BC80D9AF
:03000000020003F8
:0C000300787FE4F6D8FD75812002004AE9
:10000F0002008FE493A3F8E493A34003F68001F278
:10001F0008DFF48029E493A3F85407240CC8C333F2
:10002F00C4540F4420C8834004F456800146F6DFC1
:10003F00E4800B01020408102040809000EAE47E67
:10004F00019360BCA3FF543F30E509541FFEE493B6
:10005F00A360010ECF54C025E060A840B8E493A37D
:10006F00FAE493A3F8E493A3C8C582C8CAC583CAA8
:10007F00F0A3C8C582C8CAC583CADFE9DEE780BE60
:0100EE000011
:00000001FF
